{
  "contractName": "Battleship",
  "abi": [
    {
      "inputs": [],
      "stateMutability": "nonpayable",
      "type": "constructor"
    },
    {
      "anonymous": false,
      "inputs": [
        {
          "indexed": true,
          "internalType": "uint256",
          "name": "gameId",
          "type": "uint256"
        },
        {
          "indexed": true,
          "internalType": "address",
          "name": "challenger",
          "type": "address"
        },
        {
          "indexed": false,
          "internalType": "uint256",
          "name": "betAmount",
          "type": "uint256"
        }
      ],
      "name": "GameCreated",
      "type": "event"
    },
    {
      "anonymous": false,
      "inputs": [
        {
          "indexed": true,
          "internalType": "uint256",
          "name": "gameId",
          "type": "uint256"
        },
        {
          "indexed": true,
          "internalType": "address",
          "name": "winner",
          "type": "address"
        },
        {
          "indexed": true,
          "internalType": "address",
          "name": "loser",
          "type": "address"
        },
        {
          "indexed": false,
          "internalType": "string",
          "name": "winning_cond",
          "type": "string"
        }
      ],
      "name": "GameFinished",
      "type": "event"
    },
    {
      "anonymous": false,
      "inputs": [
        {
          "indexed": true,
          "internalType": "uint256",
          "name": "gameId",
          "type": "uint256"
        },
        {
          "indexed": true,
          "internalType": "address",
          "name": "challenger",
          "type": "address"
        },
        {
          "indexed": true,
          "internalType": "address",
          "name": "opponent",
          "type": "address"
        },
        {
          "indexed": false,
          "internalType": "uint256",
          "name": "betAmount",
          "type": "uint256"
        }
      ],
      "name": "GameJoined",
      "type": "event"
    },
    {
      "anonymous": false,
      "inputs": [
        {
          "indexed": true,
          "internalType": "uint256",
          "name": "gameId",
          "type": "uint256"
        },
        {
          "indexed": true,
          "internalType": "address",
          "name": "receiver",
          "type": "address"
        },
        {
          "indexed": false,
          "internalType": "string",
          "name": "cond",
          "type": "string"
        },
        {
          "indexed": false,
          "internalType": "uint256",
          "name": "amount",
          "type": "uint256"
        }
      ],
      "name": "GamePaid",
      "type": "event"
    },
    {
      "anonymous": false,
      "inputs": [
        {
          "indexed": true,
          "internalType": "uint256",
          "name": "gameId",
          "type": "uint256"
        },
        {
          "indexed": true,
          "internalType": "address",
          "name": "attacker",
          "type": "address"
        },
        {
          "indexed": true,
          "internalType": "address",
          "name": "defender",
          "type": "address"
        },
        {
          "indexed": false,
          "internalType": "uint8",
          "name": "row",
          "type": "uint8"
        },
        {
          "indexed": false,
          "internalType": "uint8",
          "name": "column",
          "type": "uint8"
        },
        {
          "indexed": false,
          "internalType": "uint256",
          "name": "nMove",
          "type": "uint256"
        }
      ],
      "name": "TorpedoLaunched",
      "type": "event"
    },
    {
      "anonymous": false,
      "inputs": [
        {
          "indexed": true,
          "internalType": "uint256",
          "name": "gameId",
          "type": "uint256"
        },
        {
          "indexed": true,
          "internalType": "address",
          "name": "attacker",
          "type": "address"
        },
        {
          "indexed": true,
          "internalType": "address",
          "name": "defender",
          "type": "address"
        },
        {
          "indexed": false,
          "internalType": "uint8",
          "name": "row",
          "type": "uint8"
        },
        {
          "indexed": false,
          "internalType": "uint8",
          "name": "column",
          "type": "uint8"
        },
        {
          "indexed": false,
          "internalType": "uint256",
          "name": "nMove",
          "type": "uint256"
        },
        {
          "indexed": false,
          "internalType": "uint8",
          "name": "result",
          "type": "uint8"
        }
      ],
      "name": "TorpedoResult",
      "type": "event"
    },
    {
      "inputs": [
        {
          "internalType": "bytes32",
          "name": "merkleRoot",
          "type": "bytes32"
        },
        {
          "internalType": "bytes32",
          "name": "shipsPositionsHash",
          "type": "bytes32"
        }
      ],
      "name": "createGame",
      "outputs": [],
      "stateMutability": "payable",
      "type": "function",
      "payable": true
    },
    {
      "inputs": [
        {
          "internalType": "uint256",
          "name": "gameId",
          "type": "uint256"
        }
      ],
      "name": "closeGame",
      "outputs": [],
      "stateMutability": "nonpayable",
      "type": "function"
    },
    {
      "inputs": [
        {
          "internalType": "uint256",
          "name": "gameId",
          "type": "uint256"
        },
        {
          "internalType": "bytes32",
          "name": "merkleRoot",
          "type": "bytes32"
        },
        {
          "internalType": "bytes32",
          "name": "shipsPositionsHash",
          "type": "bytes32"
        }
      ],
      "name": "joinGame",
      "outputs": [],
      "stateMutability": "payable",
      "type": "function",
      "payable": true
    },
    {
      "inputs": [
        {
          "internalType": "uint256",
          "name": "gameId",
          "type": "uint256"
        },
        {
          "internalType": "bytes32[]",
          "name": "prevMoveProof",
          "type": "bytes32[]"
        },
        {
          "internalType": "uint8",
          "name": "prevMoveResult",
          "type": "uint8"
        },
        {
          "internalType": "uint8",
          "name": "prevMoveSeed",
          "type": "uint8"
        },
        {
          "internalType": "uint8",
          "name": "nextRow",
          "type": "uint8"
        },
        {
          "internalType": "uint8",
          "name": "nextColumn",
          "type": "uint8"
        }
      ],
      "name": "launchTorpedo",
      "outputs": [],
      "stateMutability": "nonpayable",
      "type": "function"
    },
    {
      "inputs": [
        {
          "internalType": "uint256",
          "name": "gameId",
          "type": "uint256"
        }
      ],
      "name": "quitGame",
      "outputs": [],
      "stateMutability": "nonpayable",
      "type": "function"
    },
    {
      "inputs": [
        {
          "internalType": "uint256",
          "name": "gameId",
          "type": "uint256"
        },
        {
          "internalType": "uint8[]",
          "name": "board",
          "type": "uint8[]"
        },
        {
          "internalType": "uint8[]",
          "name": "boardSeeds",
          "type": "uint8[]"
        },
        {
          "internalType": "string",
          "name": "shipsPositions",
          "type": "string"
        },
        {
          "internalType": "string",
          "name": "shipsPositionSeed",
          "type": "string"
        }
      ],
      "name": "confirmLegitWin",
      "outputs": [],
      "stateMutability": "nonpayable",
      "type": "function"
    },
    {
      "inputs": [
        {
          "internalType": "bytes32[]",
          "name": "leaves",
          "type": "bytes32[]"
        }
      ],
      "name": "computeMerkleRoot",
      "outputs": [
        {
          "internalType": "bytes32",
          "name": "",
          "type": "bytes32"
        }
      ],
      "stateMutability": "pure",
      "type": "function",
      "constant": true
    }
  ],
  "bytecode": "0x60806040523480156200001157600080fd5b506001600080600260ff16815260200190815260200160002060006101000a81548160ff021916908360ff1602179055506002600080600360ff16815260200190815260200160002060006101000a81548160ff021916908360ff1602179055506001600080600460ff16815260200190815260200160002060006101000a81548160ff021916908360ff1602179055506001600080600560ff16815260200190815260200160002060006101000a81548160ff021916908360ff1602179055506000600290505b60058160ff1611620001f45760008060008360ff1660ff16815260200190815260200160002060009054906101000a900460ff1660ff161115620001de57806000808360ff1660ff16815260200190815260200160002060009054906101000a900460ff166200014a919062000253565b600160008282829054906101000a900460ff1662000169919062000295565b92506101000a81548160ff021916908360ff1602179055506000808260ff1660ff16815260200190815260200160002060009054906101000a900460ff166001808282829054906101000a900460ff16620001c5919062000295565b92506101000a81548160ff021916908360ff1602179055505b8080620001eb90620002d3565b915050620000d9565b506011600160006101000a81548160ff021916908360ff16021790555062000302565b600060ff82169050919050565b7f4e487b7100000000000000000000000000000000000000000000000000000000600052601160045260246000fd5b6000620002608262000217565b91506200026d8362000217565b92508160ff04831182151516156200028a576200028962000224565b5b828202905092915050565b6000620002a28262000217565b9150620002af8362000217565b92508260ff03821115620002c857620002c762000224565b5b828201905092915050565b6000620002e08262000217565b915060ff821415620002f757620002f662000224565b5b600182019050919050565b61547580620003126000396000f3fe6080604052600436106100705760003560e01c80635b0460d91161004e5780635b0460d9146101045780636946bb5d1461012d57806380af467514610149578063ac71924f1461016557610070565b806316f99211146100755780632b8b906c1461009e5780632d6ef310146100db575b600080fd5b34801561008157600080fd5b5061009c60048036038101906100979190613afa565b61018e565b005b3480156100aa57600080fd5b506100c560048036038101906100c09190613cb6565b61082f565b6040516100d29190613d0e565b60405180910390f35b3480156100e757600080fd5b5061010260048036038101906100fd9190613afa565b6109c0565b005b34801561011057600080fd5b5061012b60048036038101906101269190613eda565b610c8b565b005b61014760048036038101906101429190613fc5565b611694565b005b610163600480360381019061015e9190614005565b611a55565b005b34801561017157600080fd5b5061018c60048036038101906101879190614058565b611f34565b005b60006002600083815260200190815260200160002090508060010160019054906101000a900473ffffffffffffffffffffffffffffffffffffffff1673ffffffffffffffffffffffffffffffffffffffff163373ffffffffffffffffffffffffffffffffffffffff16148061025257508060020160009054906101000a900473ffffffffffffffffffffffffffffffffffffffff1673ffffffffffffffffffffffffffffffffffffffff163373ffffffffffffffffffffffffffffffffffffffff16145b610291576040517f08c379a000000000000000000000000000000000000000000000000000000000815260040161028890614184565b60405180910390fd5b600160048111156102a5576102a46141a4565b5b8160010160009054906101000a900460ff1660048111156102c9576102c86141a4565b5b148061030a5750600260048111156102e4576102e36141a4565b5b8160010160009054906101000a900460ff166004811115610308576103076141a4565b5b145b610349576040517f08c379a000000000000000000000000000000000000000000000000000000000815260040161034090614245565b60405180910390fd5b6001600481111561035d5761035c6141a4565b5b8160010160009054906101000a900460ff166004811115610381576103806141a4565b5b14156104b65760038160010160006101000a81548160ff021916908360048111156103af576103ae6141a4565b5b0217905550600073ffffffffffffffffffffffffffffffffffffffff16600073ffffffffffffffffffffffffffffffffffffffff16837fd7fdad1c7590d3d8c3567eb4575cdd43a822bbb381dcff6e9ad3d116233c584b604051610412906142b1565b60405180910390a46104b181600001548260010160019054906101000a900473ffffffffffffffffffffffffffffffffffffffff168360020160009054906101000a900473ffffffffffffffffffffffffffffffffffffffff166040518060400160405280601481526020017f5449455f47414d455f4e4f545f5354415254454400000000000000000000000081525085600801548660080154612ede565b61082b565b600260048111156104ca576104c96141a4565b5b8160010160009054906101000a900460ff1660048111156104ee576104ed6141a4565b5b141561082a5760038160010160006101000a81548160ff0219169083600481111561051c5761051b6141a4565b5b02179055506000808260010160019054906101000a900473ffffffffffffffffffffffffffffffffffffffff1673ffffffffffffffffffffffffffffffffffffffff163373ffffffffffffffffffffffffffffffffffffffff1614156105cf578260010160019054906101000a900473ffffffffffffffffffffffffffffffffffffffff1691508260020160009054906101000a900473ffffffffffffffffffffffffffffffffffffffff16905061061e565b8260020160009054906101000a900473ffffffffffffffffffffffffffffffffffffffff1691508260010160019054906101000a900473ffffffffffffffffffffffffffffffffffffffff1690505b8173ffffffffffffffffffffffffffffffffffffffff168360040160009054906101000a900473ffffffffffffffffffffffffffffffffffffffff1673ffffffffffffffffffffffffffffffffffffffff16141580156106945750610691600384600701546131ad90919063ffffffff16565b43115b15610762578073ffffffffffffffffffffffffffffffffffffffff168273ffffffffffffffffffffffffffffffffffffffff16857fd7fdad1c7590d3d8c3567eb4575cdd43a822bbb381dcff6e9ad3d116233c584b6040516106f59061431d565b60405180910390a461075d83600001548360006040518060400160405280601081526020017f4f50504f4e454e545f4142414e444f4e00000000000000000000000000000000815250610756600289600801546131c390919063ffffffff16565b6000612ede565b610827565b8173ffffffffffffffffffffffffffffffffffffffff168173ffffffffffffffffffffffffffffffffffffffff16857fd7fdad1c7590d3d8c3567eb4575cdd43a822bbb381dcff6e9ad3d116233c584b6040516107be90614389565b60405180910390a461082683600001548260006040518060400160405280600b81526020017f464f52464549545f50415900000000000000000000000000000000000000000081525061081f600289600801546131c390919063ffffffff16565b6000612ede565b5b50505b5b5050565b600061083a826131d9565b6000825190505b600181111561099c576000600260018361085b91906143d8565b610865919061445d565b905060008167ffffffffffffffff81111561088357610882613b3d565b5b6040519080825280602002602001820160405280156108b15781602001602082028036833780820191505090505b50905060005b8381101561098e5760008682815181106108d4576108d361448e565b5b602002602001015190506000876001846108ee91906143d8565b815181106108ff576108fe61448e565b5b602002602001015190508082111561091e576000829050819250809150505b600082826040516020016109339291906144de565b604051602081830303815290604052805190602001209050808560028661095a919061445d565b8151811061096b5761096a61448e565b5b60200260200101818152505050505060028161098791906143d8565b90506108b7565b508094508192505050610841565b826000815181106109b0576109af61448e565b5b6020026020010151915050919050565b60006002600083815260200190815260200160002090508060010160019054906101000a900473ffffffffffffffffffffffffffffffffffffffff1673ffffffffffffffffffffffffffffffffffffffff163373ffffffffffffffffffffffffffffffffffffffff1614610a69576040517f08c379a0000000000000000000000000000000000000000000000000000000008152600401610a609061457c565b60405180910390fd5b60006004811115610a7d57610a7c6141a4565b5b8160010160009054906101000a900460ff166004811115610aa157610aa06141a4565b5b14610ae1576040517f08c379a0000000000000000000000000000000000000000000000000000000008152600401610ad8906145e8565b60405180910390fd5b6000610afa82600801544761331f90919063ffffffff16565b1015610b3b576040517f08c379a0000000000000000000000000000000000000000000000000000000008152600401610b3290614654565b60405180910390fd5b60038160010160006101000a81548160ff02191690836004811115610b6357610b626141a4565b5b021790555060008160030160006101000a81548173ffffffffffffffffffffffffffffffffffffffff021916908373ffffffffffffffffffffffffffffffffffffffff160217905550600073ffffffffffffffffffffffffffffffffffffffff16600073ffffffffffffffffffffffffffffffffffffffff1682600001547fd7fdad1c7590d3d8c3567eb4575cdd43a822bbb381dcff6e9ad3d116233c584b604051610c0e906146c0565b60405180910390a4610c8781600001548260010160019054906101000a900473ffffffffffffffffffffffffffffffffffffffff1660006040518060400160405280601181526020017f4348414c4c454e4745525f524546554e4400000000000000000000000000000081525085600801546000612ede565b5050565b8484848484600060026000878152602001908152602001600020905060036004811115610cbb57610cba6141a4565b5b8160010160009054906101000a900460ff166004811115610cdf57610cde6141a4565b5b14610d1f576040517f08c379a0000000000000000000000000000000000000000000000000000000008152600401610d1690614752565b60405180910390fd5b3373ffffffffffffffffffffffffffffffffffffffff168160030160009054906101000a900473ffffffffffffffffffffffffffffffffffffffff1673ffffffffffffffffffffffffffffffffffffffff1614610db1576040517f08c379a0000000000000000000000000000000000000000000000000000000008152600401610da8906147e4565b60405180910390fd5b600880610dbe9190614804565b60ff168551148015610dd1575084518451145b610e10576040517f08c379a0000000000000000000000000000000000000000000000000000000008152600401610e07906148b1565b60405180910390fd5b600460018054906101000a900460ff16610e2a9190614804565b60ff16835114610e6f576040517f08c379a0000000000000000000000000000000000000000000000000000000008152600401610e6690614969565b60405180910390fd5b60005b85518160ff161015610f4b576000868260ff1681518110610e9657610e9561448e565b5b602002602001015160ff161480610ecd57506001868260ff1681518110610ec057610ebf61448e565b5b602002602001015160ff16145b8015610ef9575060ff858260ff1681518110610eec57610eeb61448e565b5b602002602001015160ff16105b610f38576040517f08c379a0000000000000000000000000000000000000000000000000000000008152600401610f2f906149d5565b60405180910390fd5b8080610f43906149f5565b915050610e72565b506000600260008d8152602001908152602001600020905060008b5167ffffffffffffffff811115610f8057610f7f613b3d565b5b604051908082528060200260200182016040528015610fae5781602001602082028036833780820191505090505b50905060005b8c5181101561106857600061100c8d8381518110610fd557610fd461448e565b5b602002602001015160ff168f8481518110610ff357610ff261448e565b5b602002602001015160ff166131ad90919063ffffffff16565b90508060405160200161101f9190614a40565b604051602081830303815290604052805190602001208383815181106110485761104761448e565b5b60200260200101818152505050808061106090614a5b565b915050610fb4565b5060006110758d8c613335565b905061107f613a00565b611087613a00565b8460010160019054906101000a900473ffffffffffffffffffffffffffffffffffffffff1673ffffffffffffffffffffffffffffffffffffffff163373ffffffffffffffffffffffffffffffffffffffff1614156112d6578460050160008660010160019054906101000a900473ffffffffffffffffffffffffffffffffffffffff1673ffffffffffffffffffffffffffffffffffffffff1673ffffffffffffffffffffffffffffffffffffffff1681526020019081526020016000206040518060800160405290816000820160009054906101000a900473ffffffffffffffffffffffffffffffffffffffff1673ffffffffffffffffffffffffffffffffffffffff1673ffffffffffffffffffffffffffffffffffffffff168152602001600182015481526020016002820160009054906101000a900460ff1660ff1660ff16815260200160038201548152505091508460050160008660020160009054906101000a900473ffffffffffffffffffffffffffffffffffffffff1673ffffffffffffffffffffffffffffffffffffffff1673ffffffffffffffffffffffffffffffffffffffff1681526020019081526020016000206040518060800160405290816000820160009054906101000a900473ffffffffffffffffffffffffffffffffffffffff1673ffffffffffffffffffffffffffffffffffffffff1673ffffffffffffffffffffffffffffffffffffffff168152602001600182015481526020016002820160009054906101000a900460ff1660ff1660ff16815260200160038201548152505090506114c9565b8460050160008660020160009054906101000a900473ffffffffffffffffffffffffffffffffffffffff1673ffffffffffffffffffffffffffffffffffffffff1673ffffffffffffffffffffffffffffffffffffffff1681526020019081526020016000206040518060800160405290816000820160009054906101000a900473ffffffffffffffffffffffffffffffffffffffff1673ffffffffffffffffffffffffffffffffffffffff1673ffffffffffffffffffffffffffffffffffffffff168152602001600182015481526020016002820160009054906101000a900460ff1660ff1660ff16815260200160038201548152505091508460050160008660010160019054906101000a900473ffffffffffffffffffffffffffffffffffffffff1673ffffffffffffffffffffffffffffffffffffffff1673ffffffffffffffffffffffffffffffffffffffff1681526020019081526020016000206040518060800160405290816000820160009054906101000a900473ffffffffffffffffffffffffffffffffffffffff1673ffffffffffffffffffffffffffffffffffffffff1673ffffffffffffffffffffffffffffffffffffffff168152602001600182015481526020016002820160009054906101000a900460ff1660ff1660ff16815260200160038201548152505090505b60006114d48561082f565b83602001511415905060008e8e6040516020016114f2929190614b1e565b60405160208183030381529060405280519060200120846060015114159050848061151a5750815b806115225750805b1561161b5760608215611568576040518060400160405280601681526020017f4f50504f4e454e545f4c4945445f4f4e5f424f4152440000000000000000000081525090505b85156115a7576040518060400160405280601d81526020017f4f50504f4e454e545f474156455f4e4f545f56414c49445f424f41524400000081525090505b81156115e6576040518060400160405280601681526020017f4f50504f4e454e545f4c4945445f4f4e5f53484950530000000000000000000081525090505b6116158860000154856000015160008461160e60028e600801546131c390919063ffffffff16565b6000612ede565b50611680565b61167f8760000154856000015160006040518060400160405280600981526020017f4c454749545f57494e000000000000000000000000000000000000000000000081525061167860028d600801546131c390919063ffffffff16565b6000612ede565b5b505050505050505050505050505050505050565b662386f26fc100003410156116de576040517f08c379a00000000000000000000000000000000000000000000000000000000081526004016116d590614b8e565b60405180910390fd5b600060026000600454815260200190815260200160002090506004548160000181905550338160010160016101000a81548173ffffffffffffffffffffffffffffffffffffffff021916908373ffffffffffffffffffffffffffffffffffffffff16021790555061174d613a00565b33816000019073ffffffffffffffffffffffffffffffffffffffff16908173ffffffffffffffffffffffffffffffffffffffff168152505083816020018181525050600160009054906101000a900460ff16816040019060ff16908160ff168152505082816060018181525050808260050160008460010160019054906101000a900473ffffffffffffffffffffffffffffffffffffffff1673ffffffffffffffffffffffffffffffffffffffff1673ffffffffffffffffffffffffffffffffffffffff16815260200190815260200160002060008201518160000160006101000a81548173ffffffffffffffffffffffffffffffffffffffff021916908373ffffffffffffffffffffffffffffffffffffffff1602179055506020820151816001015560408201518160020160006101000a81548160ff021916908360ff1602179055506060820151816003015590505034826008018190555060008260010160006101000a81548160ff021916908360048111156118d0576118cf6141a4565b5b0217905550338260040160006101000a81548173ffffffffffffffffffffffffffffffffffffffff021916908373ffffffffffffffffffffffffffffffffffffffff160217905550600360003373ffffffffffffffffffffffffffffffffffffffff1673ffffffffffffffffffffffffffffffffffffffff16815260200190815260200160002060045490806001815401808255809150506001900390600052602060002001600090919091909150557fffffffffffffffffffffffffffffffffffffffffffffffffffffffffffffffff600454106119e4576040517f08c379a00000000000000000000000000000000000000000000000000000000081526004016119db90614bfa565b60405180910390fd5b600460008154809291906119f790614a5b565b91905055503373ffffffffffffffffffffffffffffffffffffffff1682600001547f7dfb67e9ff596fca4da65c7eedb128cd1aac553af54b3c0cb733625a2480d8bd34604051611a479190614c29565b60405180910390a350505050565b8260006002600083815260200190815260200160002090503373ffffffffffffffffffffffffffffffffffffffff168160010160019054906101000a900473ffffffffffffffffffffffffffffffffffffffff1673ffffffffffffffffffffffffffffffffffffffff161415611b00576040517f08c379a0000000000000000000000000000000000000000000000000000000008152600401611af790614c90565b60405180910390fd5b60006004811115611b1457611b136141a4565b5b8160010160009054906101000a900460ff166004811115611b3857611b376141a4565b5b14611b78576040517f08c379a0000000000000000000000000000000000000000000000000000000008152600401611b6f90614cfc565b60405180910390fd5b80600801543414611bbe576040517f08c379a0000000000000000000000000000000000000000000000000000000008152600401611bb590614d68565b60405180910390fd5b6000600260008781526020019081526020016000209050338160020160006101000a81548173ffffffffffffffffffffffffffffffffffffffff021916908373ffffffffffffffffffffffffffffffffffffffff160217905550611c20613a00565b33816000019073ffffffffffffffffffffffffffffffffffffffff16908173ffffffffffffffffffffffffffffffffffffffff168152505085816020018181525050600160009054906101000a900460ff16816040019060ff16908160ff168152505084816060018181525050808260050160008460020160009054906101000a900473ffffffffffffffffffffffffffffffffffffffff1673ffffffffffffffffffffffffffffffffffffffff1673ffffffffffffffffffffffffffffffffffffffff16815260200190815260200160002060008201518160000160006101000a81548173ffffffffffffffffffffffffffffffffffffffff021916908373ffffffffffffffffffffffffffffffffffffffff1602179055506020820151816001015560408201518160020160006101000a81548160ff021916908360ff160217905550606082015181600301559050508160020160009054906101000a900473ffffffffffffffffffffffffffffffffffffffff168260040160006101000a81548173ffffffffffffffffffffffffffffffffffffffff021916908373ffffffffffffffffffffffffffffffffffffffff16021790555043826007018190555060018260010160006101000a81548160ff02191690836004811115611e0a57611e096141a4565b5b0217905550600360003373ffffffffffffffffffffffffffffffffffffffff1673ffffffffffffffffffffffffffffffffffffffff168152602001908152602001600020826000015490806001815401808255809150506001900390600052602060002001600090919091909150558160020160009054906101000a900473ffffffffffffffffffffffffffffffffffffffff1673ffffffffffffffffffffffffffffffffffffffff168260010160019054906101000a900473ffffffffffffffffffffffffffffffffffffffff1673ffffffffffffffffffffffffffffffffffffffff16887fb1ac9c5d841dda39836a3b9dc15b1f0081b3dbbd0eeebca5667f8efe05af38da8560080154604051611f239190614c29565b60405180910390a450505050505050565b85600060026000838152602001908152602001600020905060016004811115611f6057611f5f6141a4565b5b8160010160009054906101000a900460ff166004811115611f8457611f836141a4565b5b1480611fc5575060026004811115611f9f57611f9e6141a4565b5b8160010160009054906101000a900460ff166004811115611fc357611fc26141a4565b5b145b612004576040517f08c379a0000000000000000000000000000000000000000000000000000000008152600401611ffb90614dd4565b60405180910390fd5b8060040160009054906101000a900473ffffffffffffffffffffffffffffffffffffffff1673ffffffffffffffffffffffffffffffffffffffff163373ffffffffffffffffffffffffffffffffffffffff1614612096576040517f08c379a000000000000000000000000000000000000000000000000000000000815260040161208d90614e40565b60405180910390fd5b6000816006018054905014806120c357506120bf600382600701546131ad90919063ffffffff16565b4311155b612102576040517f08c379a00000000000000000000000000000000000000000000000000000000081526004016120f990614ed2565b60405180910390fd5b878484600860ff168260ff161061214e576040517f08c379a000000000000000000000000000000000000000000000000000000000815260040161214590614f3e565b60405180910390fd5b600860ff168160ff1610612197576040517f08c379a000000000000000000000000000000000000000000000000000000000815260040161218e90614faa565b60405180910390fd5b600060026000858152602001908152602001600020905060005b81600601805490508110156123f15760008260060182815481106121d8576121d761448e565b5b906000526020600020016040518060800160405290816000820160009054906101000a900473ffffffffffffffffffffffffffffffffffffffff1673ffffffffffffffffffffffffffffffffffffffff1673ffffffffffffffffffffffffffffffffffffffff1681526020016000820160149054906101000a900460ff1660ff1660ff1681526020016000820160159054906101000a900460ff1660ff1660ff1681526020016000820160169054906101000a900460ff1660ff1660ff168152505090508260010160019054906101000a900473ffffffffffffffffffffffffffffffffffffffff1673ffffffffffffffffffffffffffffffffffffffff163373ffffffffffffffffffffffffffffffffffffffff161461231d578260020160009054906101000a900473ffffffffffffffffffffffffffffffffffffffff16612343565b8260010160019054906101000a900473ffffffffffffffffffffffffffffffffffffffff165b73ffffffffffffffffffffffffffffffffffffffff16816000015173ffffffffffffffffffffffffffffffffffffffff1614156123dd578460ff16816020015160ff1614801561239c57508360ff16816040015160ff16145b156123dc576040517f08c379a00000000000000000000000000000000000000000000000000000000081526004016123d390615016565b60405180910390fd5b5b5080806123e990614a5b565b9150506121b1565b5060008b5111612436576040517f08c379a000000000000000000000000000000000000000000000000000000000815260040161242d90615082565b60405180910390fd5b60008a60ff16148061244b575060018a60ff16145b61248a576040517f08c379a0000000000000000000000000000000000000000000000000000000008152600401612481906150ee565b60405180910390fd5b6000600260008e815260200190815260200160002090506000808260010160019054906101000a900473ffffffffffffffffffffffffffffffffffffffff1673ffffffffffffffffffffffffffffffffffffffff163373ffffffffffffffffffffffffffffffffffffffff1614156125cf578260050160008460010160019054906101000a900473ffffffffffffffffffffffffffffffffffffffff1673ffffffffffffffffffffffffffffffffffffffff1673ffffffffffffffffffffffffffffffffffffffff16815260200190815260200160002091508260050160008460020160009054906101000a900473ffffffffffffffffffffffffffffffffffffffff1673ffffffffffffffffffffffffffffffffffffffff1673ffffffffffffffffffffffffffffffffffffffff168152602001908152602001600020905061269e565b8260050160008460020160009054906101000a900473ffffffffffffffffffffffffffffffffffffffff1673ffffffffffffffffffffffffffffffffffffffff1673ffffffffffffffffffffffffffffffffffffffff16815260200190815260200160002091508260050160008460010160019054906101000a900473ffffffffffffffffffffffffffffffffffffffff1673ffffffffffffffffffffffffffffffffffffffff1673ffffffffffffffffffffffffffffffffffffffff16815260200190815260200160002090505b600083600601805490501115612bdd5760006126c98d60ff168f60ff166131ad90919063ffffffff16565b6040516020016126d99190614a40565b6040516020818303038152906040528051906020012090506127008f846001015483613951565b15612a0e576000846006016001866006018054905061271f919061510e565b815481106127305761272f61448e565b5b90600052602060002001905060018f60ff1614156127825760018460020160008282829054906101000a900460ff166127699190615142565b92506101000a81548160ff021916908360ff1602179055505b8e8160000160166101000a81548160ff021916908360ff1602179055508360000160009054906101000a900473ffffffffffffffffffffffffffffffffffffffff1673ffffffffffffffffffffffffffffffffffffffff168360000160009054906101000a900473ffffffffffffffffffffffffffffffffffffffff1673ffffffffffffffffffffffffffffffffffffffff1686600001547fbd85fb17c7ac801b7da34e4cc4066a2fd17f039f6bfd9b90f22494563062eaa68460000160149054906101000a900460ff168560000160159054906101000a900460ff1660018b60060180549050612873919061510e565b8760000160169054906101000a900460ff166040516128959493929190615185565b60405180910390a460008460020160009054906101000a900460ff1660ff161415612a085760038560010160006101000a81548160ff021916908360048111156128e2576128e16141a4565b5b02179055508260000160009054906101000a900473ffffffffffffffffffffffffffffffffffffffff168560030160006101000a81548173ffffffffffffffffffffffffffffffffffffffff021916908373ffffffffffffffffffffffffffffffffffffffff1602179055508360000160009054906101000a900473ffffffffffffffffffffffffffffffffffffffff1673ffffffffffffffffffffffffffffffffffffffff168360000160009054906101000a900473ffffffffffffffffffffffffffffffffffffffff1673ffffffffffffffffffffffffffffffffffffffff1686600001547fd7fdad1c7590d3d8c3567eb4575cdd43a822bbb381dcff6e9ad3d116233c584b6040516129f690615216565b60405180910390a45050505050612ed0565b50612bd7565b60038460010160006101000a81548160ff02191690836004811115612a3657612a356141a4565b5b02179055508260000160009054906101000a900473ffffffffffffffffffffffffffffffffffffffff168460030160006101000a81548173ffffffffffffffffffffffffffffffffffffffff021916908373ffffffffffffffffffffffffffffffffffffffff1602179055508160000160009054906101000a900473ffffffffffffffffffffffffffffffffffffffff1673ffffffffffffffffffffffffffffffffffffffff168360000160009054906101000a900473ffffffffffffffffffffffffffffffffffffffff1673ffffffffffffffffffffffffffffffffffffffff1685600001547fd7fdad1c7590d3d8c3567eb4575cdd43a822bbb381dcff6e9ad3d116233c584b604051612b4a90615282565b60405180910390a4612bd684600001548460000160009054906101000a900473ffffffffffffffffffffffffffffffffffffffff1660006040518060400160405280601081526020017f4f50504f4e454e545f4348454154454400000000000000000000000000000000815250612bcf60028a600801546131c390919063ffffffff16565b6000612ede565b5b50612c0b565b60028360010160006101000a81548160ff02191690836004811115612c0557612c046141a4565b5b02179055505b612c13613a47565b8260000160009054906101000a900473ffffffffffffffffffffffffffffffffffffffff16816000019073ffffffffffffffffffffffffffffffffffffffff16908173ffffffffffffffffffffffffffffffffffffffff16815250508b816020019060ff16908160ff16815250508a816040019060ff16908160ff168152505083600601819080600181540180825580915050600190039060005260206000200160009091909190915060008201518160000160006101000a81548173ffffffffffffffffffffffffffffffffffffffff021916908373ffffffffffffffffffffffffffffffffffffffff16021790555060208201518160000160146101000a81548160ff021916908360ff16021790555060408201518160000160156101000a81548160ff021916908360ff16021790555060608201518160000160166101000a81548160ff021916908360ff16021790555050508160000160009054906101000a900473ffffffffffffffffffffffffffffffffffffffff168460040160006101000a81548173ffffffffffffffffffffffffffffffffffffffff021916908373ffffffffffffffffffffffffffffffffffffffff16021790555043846007018190555060028460010160006101000a81548160ff02191690836004811115612e0157612e006141a4565b5b02179055508160000160009054906101000a900473ffffffffffffffffffffffffffffffffffffffff1673ffffffffffffffffffffffffffffffffffffffff168360000160009054906101000a900473ffffffffffffffffffffffffffffffffffffffff1673ffffffffffffffffffffffffffffffffffffffff1685600001547fc2c9eb142da91e61b3e3a35cb8f9868234da2d105482df062c2c8ad39234cfd7846020015185604001518960060180549050604051612ec3939291906152a2565b60405180910390a4505050505b505050505050505050505050565b6000600260008881526020019081526020016000209050612f3182612f2385612f15600286600801546131c390919063ffffffff16565b61331f90919063ffffffff16565b61331f90919063ffffffff16565b471015612f73576040517f08c379a0000000000000000000000000000000000000000000000000000000008152600401612f6a90614654565b60405180910390fd5b6000816008018190555060048160010160006101000a81548160ff02191690836004811115612fa557612fa46141a4565b5b021790555060008311612fed576040517f08c379a0000000000000000000000000000000000000000000000000000000008152600401612fe490615325565b60405180910390fd5b6000821015613031576040517f08c379a000000000000000000000000000000000000000000000000000000000815260040161302890615325565b60405180910390fd5b8573ffffffffffffffffffffffffffffffffffffffff166108fc849081150290604051600060405180830381858888f19350505050158015613077573d6000803e3d6000fd5b508573ffffffffffffffffffffffffffffffffffffffff16877f1ce3ec2d8b43cc00fff830e4445c14d5e49e70c51238d6c9631b1c0abcd24a7c86866040516130c192919061537e565b60405180910390a3600073ffffffffffffffffffffffffffffffffffffffff168573ffffffffffffffffffffffffffffffffffffffff16141580156131065750600082115b156131a4578473ffffffffffffffffffffffffffffffffffffffff166108fc839081150290604051600060405180830381858888f19350505050158015613151573d6000803e3d6000fd5b508473ffffffffffffffffffffffffffffffffffffffff16877f1ce3ec2d8b43cc00fff830e4445c14d5e49e70c51238d6c9631b1c0abcd24a7c868560405161319b92919061537e565b60405180910390a35b50505050505050565b600081836131bb91906143d8565b905092915050565b600081836131d191906153ae565b905092915050565b60008151905060005b6001826131ef919061510e565b81101561331a5760005b60018284613207919061510e565b613211919061510e565b811015613306578360018261322691906143d8565b815181106132375761323661448e565b5b60200260200101518482815181106132525761325161448e565b5b602002602001015111156132f35760008482815181106132755761327461448e565b5b602002602001015190508460018361328d91906143d8565b8151811061329e5761329d61448e565b5b60200260200101518583815181106132b9576132b861448e565b5b60200260200101818152505080856001846132d491906143d8565b815181106132e5576132e461448e565b5b602002602001018181525050505b80806132fe90614a5b565b9150506131f9565b50808061331290614a5b565b9150506131e2565b505050565b6000818361332d919061510e565b905092915050565b600061333f613a8e565b60005b60018054906101000a900460ff1660ff168160ff16101561378d5760008460048361336d9190614804565b60ff16815181106133815761338061448e565b5b602001015160f81c60f81b90507f4800000000000000000000000000000000000000000000000000000000000000817effffffffffffffffffffffffffffffffffffffffffffffffffffffffffffff1916141561357d5760008560016004856133ea9190614804565b6133f49190615408565b60ff16815181106134085761340761448e565b5b602001015160f81c60f81b60f81c9050600086600260048661342a9190614804565b6134349190615408565b60ff16815181106134485761344761448e565b5b602001015160f81c60f81b60f81c9050600087600360048761346a9190614804565b6134749190615408565b60ff16815181106134885761348761448e565b5b602001015160f81c60f81b60f81c9050600860ff1681836134a99190615408565b60ff1611156134c1576000965050505050505061394b565b60008290505b81836134d39190615408565b60ff168160ff1610156135425760018a826008876134f19190614804565b6134fb9190615408565b60ff168151811061350f5761350e61448e565b5b602002602001015160ff161461352f57600097505050505050505061394b565b808061353a906149f5565b9150506134c7565b50858160ff16600681106135595761355861448e565b5b60200201805180919061356b906149f5565b60ff1660ff1681525050505050613779565b7f5600000000000000000000000000000000000000000000000000000000000000817effffffffffffffffffffffffffffffffffffffffffffffffffffffffffffff1916141561376c5760008560016004856135d99190614804565b6135e39190615408565b60ff16815181106135f7576135f661448e565b5b602001015160f81c60f81b60f81c905060008660026004866136199190614804565b6136239190615408565b60ff16815181106136375761363661448e565b5b602001015160f81c60f81b60f81c905060008760036004876136599190614804565b6136639190615408565b60ff16815181106136775761367661448e565b5b602001015160f81c60f81b60f81c9050600860ff1681836136989190615408565b60ff1611156136b0576000965050505050505061394b565b60008290505b81836136c29190615408565b60ff168160ff1610156137315760018a6008836136df9190614804565b866136ea9190615408565b60ff16815181106136fe576136fd61448e565b5b602002602001015160ff161461371e57600097505050505050505061394b565b8080613729906149f5565b9150506136b6565b50858160ff16600681106137485761374761448e565b5b60200201805180919061375a906149f5565b60ff1660ff1681525050505050613778565b6000935050505061394b565b5b508080613785906149f5565b915050613342565b506000805b85518110156137e35760018682815181106137b0576137af61448e565b5b602002602001015160ff1614156137d05781806137cc906149f5565b9250505b80806137db90614a5b565b915050613792565b50600160009054906101000a900460ff1660ff168160ff161461380b5760009250505061394b565b600080600260ff16815260200190815260200160002060009054906101000a900460ff1660ff16826002600681106138465761384561448e565b5b602002015160ff1614158061389c5750600080600360ff16815260200190815260200160002060009054906101000a900460ff1660ff16826003600681106138915761389061448e565b5b602002015160ff1614155b806138e85750600080600460ff16815260200190815260200160002060009054906101000a900460ff1660ff16826004600681106138dd576138dc61448e565b5b602002015160ff1614155b806139345750600080600560ff16815260200190815260200160002060009054906101000a900460ff1660ff16826005600681106139295761392861448e565b5b602002015160ff1614155b156139445760009250505061394b565b6001925050505b92915050565b60008261395e8584613968565b1490509392505050565b60008082905060005b84518110156139b35761399e828683815181106139915761399061448e565b5b60200260200101516139be565b915080806139ab90614a5b565b915050613971565b508091505092915050565b60008183106139d6576139d182846139e9565b6139e1565b6139e083836139e9565b5b905092915050565b600082600052816020526040600020905092915050565b6040518060800160405280600073ffffffffffffffffffffffffffffffffffffffff16815260200160008019168152602001600060ff168152602001600080191681525090565b6040518060800160405280600073ffffffffffffffffffffffffffffffffffffffff168152602001600060ff168152602001600060ff168152602001600060ff1681525090565b6040518060c00160405280600690602082028036833780820191505090505090565b6000604051905090565b600080fd5b600080fd5b6000819050919050565b613ad781613ac4565b8114613ae257600080fd5b50565b600081359050613af481613ace565b92915050565b600060208284031215613b1057613b0f613aba565b5b6000613b1e84828501613ae5565b91505092915050565b600080fd5b6000601f19601f8301169050919050565b7f4e487b7100000000000000000000000000000000000000000000000000000000600052604160045260246000fd5b613b7582613b2c565b810181811067ffffffffffffffff82111715613b9457613b93613b3d565b5b80604052505050565b6000613ba7613ab0565b9050613bb38282613b6c565b919050565b600067ffffffffffffffff821115613bd357613bd2613b3d565b5b602082029050602081019050919050565b600080fd5b6000819050919050565b613bfc81613be9565b8114613c0757600080fd5b50565b600081359050613c1981613bf3565b92915050565b6000613c32613c2d84613bb8565b613b9d565b90508083825260208201905060208402830185811115613c5557613c54613be4565b5b835b81811015613c7e5780613c6a8882613c0a565b845260208401935050602081019050613c57565b5050509392505050565b600082601f830112613c9d57613c9c613b27565b5b8135613cad848260208601613c1f565b91505092915050565b600060208284031215613ccc57613ccb613aba565b5b600082013567ffffffffffffffff811115613cea57613ce9613abf565b5b613cf684828501613c88565b91505092915050565b613d0881613be9565b82525050565b6000602082019050613d236000830184613cff565b92915050565b600067ffffffffffffffff821115613d4457613d43613b3d565b5b602082029050602081019050919050565b600060ff82169050919050565b613d6b81613d55565b8114613d7657600080fd5b50565b600081359050613d8881613d62565b92915050565b6000613da1613d9c84613d29565b613b9d565b90508083825260208201905060208402830185811115613dc457613dc3613be4565b5b835b81811015613ded5780613dd98882613d79565b845260208401935050602081019050613dc6565b5050509392505050565b600082601f830112613e0c57613e0b613b27565b5b8135613e1c848260208601613d8e565b91505092915050565b600080fd5b600067ffffffffffffffff821115613e4557613e44613b3d565b5b613e4e82613b2c565b9050602081019050919050565b82818337600083830152505050565b6000613e7d613e7884613e2a565b613b9d565b905082815260208101848484011115613e9957613e98613e25565b5b613ea4848285613e5b565b509392505050565b600082601f830112613ec157613ec0613b27565b5b8135613ed1848260208601613e6a565b91505092915050565b600080600080600060a08688031215613ef657613ef5613aba565b5b6000613f0488828901613ae5565b955050602086013567ffffffffffffffff811115613f2557613f24613abf565b5b613f3188828901613df7565b945050604086013567ffffffffffffffff811115613f5257613f51613abf565b5b613f5e88828901613df7565b935050606086013567ffffffffffffffff811115613f7f57613f7e613abf565b5b613f8b88828901613eac565b925050608086013567ffffffffffffffff811115613fac57613fab613abf565b5b613fb888828901613eac565b9150509295509295909350565b60008060408385031215613fdc57613fdb613aba565b5b6000613fea85828601613c0a565b9250506020613ffb85828601613c0a565b9150509250929050565b60008060006060848603121561401e5761401d613aba565b5b600061402c86828701613ae5565b935050602061403d86828701613c0a565b925050604061404e86828701613c0a565b9150509250925092565b60008060008060008060c0878903121561407557614074613aba565b5b600061408389828a01613ae5565b965050602087013567ffffffffffffffff8111156140a4576140a3613abf565b5b6140b089828a01613c88565b95505060406140c189828a01613d79565b94505060606140d289828a01613d79565b93505060806140e389828a01613d79565b92505060a06140f489828a01613d79565b9150509295509295509295565b600082825260208201905092915050565b7f5468652063616c6c6572206973206e6f7420706c6179696e672074686973206760008201527f616d650000000000000000000000000000000000000000000000000000000000602082015250565b600061416e602383614101565b915061417982614112565b604082019050919050565b6000602082019050818103600083015261419d81614161565b9050919050565b7f4e487b7100000000000000000000000000000000000000000000000000000000600052602160045260246000fd5b7f5468652067616d652073686f756c64206265207265616479206f72207374617260008201527f7465640000000000000000000000000000000000000000000000000000000000602082015250565b600061422f602383614101565b915061423a826141d3565b604082019050919050565b6000602082019050818103600083015261425e81614222565b9050919050565b7f504c415945525f515549545f4245464f52455f53544152540000000000000000600082015250565b600061429b601883614101565b91506142a682614265565b602082019050919050565b600060208201905081810360008301526142ca8161428e565b9050919050565b7f54494d455f455850495245445f434c41494d4544000000000000000000000000600082015250565b6000614307601483614101565b9150614312826142d1565b602082019050919050565b60006020820190508181036000830152614336816142fa565b9050919050565b7f504c415945525f464f5246454954000000000000000000000000000000000000600082015250565b6000614373600e83614101565b915061437e8261433d565b602082019050919050565b600060208201905081810360008301526143a281614366565b9050919050565b7f4e487b7100000000000000000000000000000000000000000000000000000000600052601160045260246000fd5b60006143e382613ac4565b91506143ee83613ac4565b9250827fffffffffffffffffffffffffffffffffffffffffffffffffffffffffffffffff03821115614423576144226143a9565b5b828201905092915050565b7f4e487b7100000000000000000000000000000000000000000000000000000000600052601260045260246000fd5b600061446882613ac4565b915061447383613ac4565b9250826144835761448261442e565b5b828204905092915050565b7f4e487b7100000000000000000000000000000000000000000000000000000000600052603260045260246000fd5b6000819050919050565b6144d86144d382613be9565b6144bd565b82525050565b60006144ea82856144c7565b6020820191506144fa82846144c7565b6020820191508190509392505050565b7f4f6e6c7920746865206368616c6c656e6765722063616e20636c6f736520746860008201527f652067616d650000000000000000000000000000000000000000000000000000602082015250565b6000614566602683614101565b91506145718261450a565b604082019050919050565b6000602082019050818103600083015261459581614559565b9050919050565b7f5468652067616d6520697320616c726561647920737461727465640000000000600082015250565b60006145d2601b83614101565b91506145dd8261459c565b602082019050919050565b60006020820190508181036000830152614601816145c5565b9050919050565b7f496e73756666696369656e7420636f6e74726163742062616c616e6365000000600082015250565b600061463e601d83614101565b915061464982614608565b602082019050919050565b6000602082019050818103600083015261466d81614631565b9050919050565b7f47414d455f434c4f534544000000000000000000000000000000000000000000600082015250565b60006146aa600b83614101565b91506146b582614674565b602082019050919050565b600060208201905081810360008301526146d98161469d565b9050919050565b7f47616d65206973206e6f742066696e6973686564206f72206974277320616c7260008201527f6561647920706169640000000000000000000000000000000000000000000000602082015250565b600061473c602983614101565b9150614747826146e0565b604082019050919050565b6000602082019050818103600083015261476b8161472f565b9050919050565b7f4f6e6c79207468652077696e6e65722063616e2063616c6c207468697320667560008201527f6e6374696f6e0000000000000000000000000000000000000000000000000000602082015250565b60006147ce602683614101565b91506147d982614772565b604082019050919050565b600060208201905081810360008301526147fd816147c1565b9050919050565b600061480f82613d55565b915061481a83613d55565b92508160ff0483118215151615614834576148336143a9565b5b828202905092915050565b7f426f61726420616e6420536565647320617272617973206d757374206861766560008201527f207468652073616d65206c656e67746820283634290000000000000000000000602082015250565b600061489b603583614101565b91506148a68261483f565b604082019050919050565b600060208201905081810360008301526148ca8161488e565b9050919050565b7f546865207368697020706f736974696f6e20636f64656420737472696e67207360008201527f686f756c64206265206e756d626572206f66207368697073202a20342063686160208201527f7273206c656e6774680000000000000000000000000000000000000000000000604082015250565b6000614953604983614101565b915061495e826148d1565b606082019050919050565b6000602082019050818103600083015261498281614946565b9050919050565b7f426f617264206f7220536565647320617265206e6f742076616c696400000000600082015250565b60006149bf601c83614101565b91506149ca82614989565b602082019050919050565b600060208201905081810360008301526149ee816149b2565b9050919050565b6000614a0082613d55565b915060ff821415614a1457614a136143a9565b5b600182019050919050565b6000819050919050565b614a3a614a3582613ac4565b614a1f565b82525050565b6000614a4c8284614a29565b60208201915081905092915050565b6000614a6682613ac4565b91507fffffffffffffffffffffffffffffffffffffffffffffffffffffffffffffffff821415614a9957614a986143a9565b5b600182019050919050565b600081519050919050565b600081905092915050565b60005b83811015614ad8578082015181840152602081019050614abd565b83811115614ae7576000848401525b50505050565b6000614af882614aa4565b614b028185614aaf565b9350614b12818560208601614aba565b80840191505092915050565b6000614b2a8285614aed565b9150614b368284614aed565b91508190509392505050565b7f496e73756666696369656e742062657420616d6f756e74000000000000000000600082015250565b6000614b78601783614101565b9150614b8382614b42565b602082019050919050565b60006020820190508181036000830152614ba781614b6b565b9050919050565b7f4d6178696d756d206e756d626572206f662067616d657320726561636865642e600082015250565b6000614be4602083614101565b9150614bef82614bae565b602082019050919050565b60006020820190508181036000830152614c1381614bd7565b9050919050565b614c2381613ac4565b82525050565b6000602082019050614c3e6000830184614c1a565b92915050565b7f596f752061726520616c726561647920746865206368616c6c656e6765720000600082015250565b6000614c7a601e83614101565b9150614c8582614c44565b602082019050919050565b60006020820190508181036000830152614ca981614c6d565b9050919050565b7f47616d65206973206e6f74206f70656e00000000000000000000000000000000600082015250565b6000614ce6601083614101565b9150614cf182614cb0565b602082019050919050565b60006020820190508181036000830152614d1581614cd9565b9050919050565b7f496e76616c69642062657420616d6f756e740000000000000000000000000000600082015250565b6000614d52601283614101565b9150614d5d82614d1c565b602082019050919050565b60006020820190508181036000830152614d8181614d45565b9050919050565b7f47616d652068617320616c72656164792066696e697368656400000000000000600082015250565b6000614dbe601983614101565b9150614dc982614d88565b602082019050919050565b60006020820190508181036000830152614ded81614db1565b9050919050565b7f49742773206e6f7420796f7572207475726e0000000000000000000000000000600082015250565b6000614e2a601283614101565b9150614e3582614df4565b602082019050919050565b60006020820190508181036000830152614e5981614e1d565b9050919050565b7f596f752063616e2774206d6f76652c20746865206162616e646f6e2074696d6560008201527f7220657870697265640000000000000000000000000000000000000000000000602082015250565b6000614ebc602983614101565b9150614ec782614e60565b604082019050919050565b60006020820190508181036000830152614eeb81614eaf565b9050919050565b7f496e76616c696420726f77000000000000000000000000000000000000000000600082015250565b6000614f28600b83614101565b9150614f3382614ef2565b602082019050919050565b60006020820190508181036000830152614f5781614f1b565b9050919050565b7f496e76616c696420636f6c756d6e000000000000000000000000000000000000600082015250565b6000614f94600e83614101565b9150614f9f82614f5e565b602082019050919050565b60006020820190508181036000830152614fc381614f87565b9050919050565b7f4d6f766520616c7265616479206d616465000000000000000000000000000000600082015250565b6000615000601183614101565b915061500b82614fca565b602082019050919050565b6000602082019050818103600083015261502f81614ff3565b9050919050565b7f496e76616c69642070726f6f6600000000000000000000000000000000000000600082015250565b600061506c600d83614101565b915061507782615036565b602082019050919050565b6000602082019050818103600083015261509b8161505f565b9050919050565b7f496e76616c69642070726576696f7573206d6f766520726573756c7400000000600082015250565b60006150d8601c83614101565b91506150e3826150a2565b602082019050919050565b60006020820190508181036000830152615107816150cb565b9050919050565b600061511982613ac4565b915061512483613ac4565b925082821015615137576151366143a9565b5b828203905092915050565b600061514d82613d55565b915061515883613d55565b92508282101561516b5761516a6143a9565b5b828203905092915050565b61517f81613d55565b82525050565b600060808201905061519a6000830187615176565b6151a76020830186615176565b6151b46040830185614c1a565b6151c16060830184615176565b95945050505050565b7f544f5f434845434b5f57494e0000000000000000000000000000000000000000600082015250565b6000615200600c83614101565b915061520b826151ca565b602082019050919050565b6000602082019050818103600083015261522f816151f3565b9050919050565b7f4f50504f4e454e545f4d4f56455f434845415400000000000000000000000000600082015250565b600061526c601383614101565b915061527782615236565b602082019050919050565b6000602082019050818103600083015261529b8161525f565b9050919050565b60006060820190506152b76000830186615176565b6152c46020830185615176565b6152d16040830184614c1a565b949350505050565b7f496e76616c69642072657761726420616d6f756e740000000000000000000000600082015250565b600061530f601583614101565b915061531a826152d9565b602082019050919050565b6000602082019050818103600083015261533e81615302565b9050919050565b600061535082614aa4565b61535a8185614101565b935061536a818560208601614aba565b61537381613b2c565b840191505092915050565b600060408201905081810360008301526153988185615345565b90506153a76020830184614c1a565b9392505050565b60006153b982613ac4565b91506153c483613ac4565b9250817fffffffffffffffffffffffffffffffffffffffffffffffffffffffffffffffff04831182151516156153fd576153fc6143a9565b5b828202905092915050565b600061541382613d55565b915061541e83613d55565b92508260ff03821115615434576154336143a9565b5b82820190509291505056fea2646970667358221220dbcb304657fd7d069f8046436b64616776cb1ab82c11ec6af7ab9b5507ab92b564736f6c63430008090033",
  "immutableReferences": {},
  "source": "// SPDX-License-Identifier: GPL-3.0-or-later\npragma solidity ^0.8.0;\n\nimport \"@openzeppelin/contracts/utils/math/SafeMath.sol\";\nimport \"@openzeppelin/contracts/utils/cryptography/MerkleProof.sol\";\n\ncontract Battleship {\n    using SafeMath for uint8;\n    using SafeMath for uint256;\n\n    // Config //\n\n    uint8 constant GRID_DIM = 8; //Board dimension\n    uint constant MIN_BET = 0.01 ether; \n    uint256 constant INACTIVITY_TIME_GAP = 3; // Blocks gap (IT'S FOR TESTING, CHANGE THE VALUE TO 40 (10 min))\n\n    //(Dimention) -> (Number of ships allowed with that dimention)\n    mapping (uint8 => uint8) shipsDimensions;\n    // Sum of all ship lengths\n    uint8 defaultHitboxes;\n    // Number of ships\n    uint8 shipsNum;\n\n    constructor(){\n        shipsDimensions[2] = 1; // Destroyer\n        shipsDimensions[3] = 2; // Submarine / Cruiser\n        shipsDimensions[4] = 1; // Battleship\n        shipsDimensions[5] = 1; // Carrier\n\n        for (uint8 i = 2; i <= 5; i++) {\n            if (shipsDimensions[i] > 0) {\n                defaultHitboxes += shipsDimensions[i]*i; \n                shipsNum += shipsDimensions[i];\n            }\n        }\n\n        defaultHitboxes = 17;\n    }\n\n    // Data structures //\n\n    enum GameStatus {\n        OPEN,\n        READY,\n        STARTED,\n        FINISHED,\n        PAID\n    }\n\n    struct Move {\n        address player;\n        uint8 row;\n        uint8 column;\n        uint8 result;\n    }\n\n    struct Player {\n        address addr;\n        bytes32 merkleRoot;\n        uint8 remHitboxes;\n        bytes32 shipsPositionsHash; // Keccak256 (string representing concatened tuples \n                                     // < direction(\"H/V\"), occupied row/column, starting column/row, shiplenght) >\n                                     // concat a random seed in the end)\n    }\n\n    struct Game {\n        uint256 gameId;\n        GameStatus status;\n        address challenger;\n        address opponent;\n        address winner;\n        address inTurn;\n        mapping(address => Player) players;\n        Move[] movesHistory;\n        uint256 lastMoveBlockNumber;\n        uint256 rewardAmount;\n    }\n\n    mapping(uint256 => Game) games;\n    mapping(address => uint[]) private playerGames;\n    uint256 gamesCount;\n\n\n    // Modifiers //\n\n    modifier canJoin(uint gameId) {\n        Game storage game = games[gameId];\n        require(game.challenger != msg.sender,\"You are already the challenger\");\n        require(game.status == GameStatus.OPEN, \"Game is not open\");\n        require(msg.value == game.rewardAmount, \"Invalid bet amount\");\n        _;\n    }\n\n    modifier canMove(uint gameId) {\n        Game storage game = games[gameId];\n        require(game.status == GameStatus.READY || game.status == GameStatus.STARTED,\"Game has already finished\");\n        require(msg.sender == game.inTurn, \"It's not your turn\");\n        require(game.movesHistory.length == 0 || block.number <= game.lastMoveBlockNumber.add(INACTIVITY_TIME_GAP),\"You can't move, the abandon timer expired\");\n        _;\n    }\n\n    modifier canConfirm(uint gameId, uint8[] memory board, uint8[] memory boardSeeds, string memory shipsPositions, string memory shipsPositionSeed) {\n        Game storage game = games[gameId];\n        require(game.status == GameStatus.FINISHED, \"Game is not finished or it's already paid\");\n        require(game.winner == msg.sender, \"Only the winner can call this function\");\n        require(board.length == (GRID_DIM*GRID_DIM) && boardSeeds.length == board.length ,\"Board and Seeds arrays must have the same length (64)\");\n        require(bytes(shipsPositions).length == shipsNum * 4,\"The ship position coded string should be number of ships * 4 chars length\");\n\n        //Check board and boardseeds structure\n        for (uint8 i = 0; i < board.length; i++) {\n            require((board[i]==0 || board[i]==1) && boardSeeds[i] < 255,\"Board or Seeds are not valid\");\n        }\n        _;\n    }\n\n    modifier isValidMove(uint gameId, uint8 nextRow, uint8 nextColumn) {\n        require(nextRow < GRID_DIM, \"Invalid row\");\n        require(nextColumn < GRID_DIM, \"Invalid column\");\n\n        //Check if the move has not been already done\n        Game storage game = games[gameId];\n        for (uint i = 0; i < game.movesHistory.length; i++) {\n            Move memory move = game.movesHistory[i];\n            if(move.player == ((msg.sender == game.challenger) ? game.challenger : game.opponent))\n            require(!(move.row == nextRow && move.column == nextColumn),\"Move already made\");\n        }\n        _;\n    }\n\n    // Events //\n\n    event GameCreated(\n        uint indexed gameId,\n        address indexed challenger,\n        uint betAmount\n    );\n\n    event GameJoined(\n        uint indexed gameId,\n        address indexed challenger,\n        address indexed opponent,\n        uint betAmount\n    );\n\n    event TorpedoLaunched(\n        uint indexed gameId,\n        address indexed attacker,\n        address indexed defender,\n        uint8 row,\n        uint8 column,\n        uint256 nMove\n    );\n\n    event TorpedoResult(\n        uint indexed gameId,\n        address indexed attacker,\n        address indexed defender,\n        uint8 row,\n        uint8 column,\n        uint256 nMove,\n        uint8 result\n    );\n\n    event GameFinished(\n        uint indexed gameId,\n        address indexed winner,\n        address indexed loser,\n        string winning_cond\n    );\n\n    event GamePaid(\n        uint indexed gameId,\n        address indexed receiver,\n        string cond,\n        uint256 amount\n    );\n\n    // Core Logic //\n\n    function createGame(bytes32 merkleRoot, bytes32 shipsPositionsHash) external payable {\n        require(msg.value >= MIN_BET, \"Insufficient bet amount\");\n\n        Game storage game = games[gamesCount];\n        game.gameId = gamesCount;\n        game.challenger = msg.sender;\n\n        //Initialize the challenger\n        Player memory challenger;\n        challenger.addr = msg.sender;\n        challenger.merkleRoot = merkleRoot;\n        challenger.remHitboxes = defaultHitboxes;\n        challenger.shipsPositionsHash = shipsPositionsHash;\n        game.players[game.challenger] = challenger;\n\n        game.rewardAmount = msg.value;\n        game.status = GameStatus.OPEN;\n        game.inTurn = msg.sender;\n\n        playerGames[msg.sender].push(gamesCount);\n        \n        require(gamesCount < type(uint256).max, \"Maximum number of games reached.\");\n        gamesCount++;\n\n        emit GameCreated(game.gameId, msg.sender, msg.value);\n    }\n\n    //If the game still not joined -> the challenger can close the game and get its money back.\n    function closeGame(uint gameId) public {\n        Game storage game = games[gameId];\n        require(msg.sender == game.challenger, \"Only the challenger can close the game\");\n        require(game.status == GameStatus.OPEN, \"The game is already started\");\n        require(address(this).balance.sub(game.rewardAmount) >= 0,\"Insufficient contract balance\");\n\n        game.status = GameStatus.FINISHED;\n        game.winner = address(0x0);\n        emit GameFinished(game.gameId, address(0x0), address(0x0), \"GAME_CLOSED\");\n        payReward(game.gameId,  game.challenger, address(0x0), \"CHALLENGER_REFUND\", game.rewardAmount, 0);\n    }\n\n    \n    function joinGame(uint gameId, bytes32 merkleRoot, bytes32 shipsPositionsHash) external payable canJoin(gameId) {\n        Game storage game = games[gameId];\n        game.opponent = msg.sender;\n\n        //Initialize the ooponent\n        Player memory opponent;\n        opponent.addr = msg.sender;\n        opponent.merkleRoot = merkleRoot;\n        opponent.remHitboxes = defaultHitboxes;\n        opponent.shipsPositionsHash = shipsPositionsHash;\n\n        game.players[game.opponent] = opponent;\n\n        game.inTurn = game.opponent; // The one who joins will be the first one who move\n        game.lastMoveBlockNumber = block.number; // The inactivity timer starts when both join.\n\n        game.status = GameStatus.READY;\n\n        playerGames[msg.sender].push(game.gameId);\n\n        emit GameJoined(gameId,game.challenger,game.opponent,game.rewardAmount);\n    }\n\n    function launchTorpedo(uint gameId, bytes32[] memory prevMoveProof, uint8 prevMoveResult, uint8 prevMoveSeed, uint8 nextRow, uint8 nextColumn) external canMove(gameId) isValidMove(gameId, nextRow, nextColumn) {\n        require(prevMoveProof.length > 0, \"Invalid proof\");\n        require(prevMoveResult == 0 || prevMoveResult == 1 , \"Invalid previous move result\");\n\n        Game storage game = games[gameId];\n\n        Player storage prevMoveDefender;\n        Player storage prevMoveAttacker;\n\n        // Asymmetric view\n        if (msg.sender == game.challenger){\n            prevMoveDefender = game.players[game.challenger];\n            prevMoveAttacker = game.players[game.opponent];\n        } else {\n            prevMoveDefender = game.players[game.opponent];\n            prevMoveAttacker = game.players[game.challenger];\n        }\n\n        if (game.movesHistory.length > 0) { // If it's not the first move -> use merkle proof + hit result to prove that previous move was a cheating one\n            bytes32 merkleLeaf =  keccak256(abi.encodePacked(prevMoveResult.add(prevMoveSeed)));\n            \n            //OpenZeppelin docu : verify(bytes32[] memory proof, bytes32 root, bytes32 leaf)\n            if (MerkleProof.verify(prevMoveProof,prevMoveDefender.merkleRoot,merkleLeaf)) { // The opponent did not cheat\n                Move storage prevMove = game.movesHistory[game.movesHistory.length - 1];\n\n                //If it is an hit decrement remHitBox of the defender\n                if (prevMoveResult == 1) prevMoveDefender.remHitboxes-=1;\n\n                //Add the move to the game moves history\n                prevMove.result = prevMoveResult;\n\n                emit TorpedoResult(game.gameId, prevMoveAttacker.addr, prevMoveDefender.addr,prevMove.row, prevMove.column, game.movesHistory.length - 1, prevMove.result);\n\n                // Previous move was a lasthit -> the playing phase ends to let the winner convalidate the win\n                if (prevMoveDefender.remHitboxes == 0) {\n                    game.status = GameStatus.FINISHED;\n                    game.winner = prevMoveAttacker.addr;\n                    emit GameFinished(game.gameId, prevMoveAttacker.addr, prevMoveDefender.addr,\"TO_CHECK_WIN\");\n                    return;\n                }\n\n            } else {// Previous move was a cheating one -> PUNISH THE ATTACKER!\n                game.status = GameStatus.FINISHED;\n                game.winner = prevMoveDefender.addr;\n                emit GameFinished(game.gameId, prevMoveDefender.addr, prevMoveAttacker.addr,\"OPPONENT_MOVE_CHEAT\");\n                payReward(game.gameId,  prevMoveDefender.addr, address(0x0), \"OPPONENT_CHEATED\", game.rewardAmount.mul(2), 0);\n            }\n        }\n        else{\n            game.status = GameStatus.STARTED;\n        }\n\n\n        //previous move was valid + not a lasthit -> the game can go on\n        // by this moment prevMoveDefender the attacker and viceversa.\n\n        //so let's put the new move in the movesHistory\n        Move memory m;\n        m.player = prevMoveDefender.addr;\n        m.row = nextRow;\n        m.column = nextColumn;\n        game.movesHistory.push(m);\n\n        //lastly update turn variables to avoid reentrancy\n        game.inTurn = prevMoveAttacker.addr;  // Next turn he will defend himslelf\n        game.lastMoveBlockNumber = block.number; // The inactivity timer restarts at each move\n        game.status = GameStatus.STARTED;\n\n        emit TorpedoLaunched(game.gameId, prevMoveDefender.addr, prevMoveAttacker.addr, m.row, m.column, game.movesHistory.length);\n    }\n\n    // Allowing players to take action against opponent inactivity, including forfeit and quitting before the game starts\n    // There are 4 possible cases to consider based on player's turn condition (inTurn / not inTurn) and game status (READY / STARTED):\n    // 1. Game is ready and player is inTurn: Player wants to quit, refund both players the amount.\n    // 2. Game is ready and player is not inTurn: Player wants to quit, refund both players the amount.\n    // 3. Game is started and player is inTurn: Player wants to quit giving a forfeit, the opponent wins.\n    // 4. Game is started and player is not inTurn: Player wants to quit due to opponent inactivity or volutary (to split the two cases check msg.block).\n\n    function quitGame(uint gameId) public {\n    Game storage game = games[gameId];\n\n    require(msg.sender == game.challenger || msg.sender == game.opponent, \"The caller is not playing this game\");\n    require(game.status == GameStatus.READY || game.status == GameStatus.STARTED, \"The game should be ready or started\");\n\n    if (game.status == GameStatus.READY) {\n\n        game.status = GameStatus.FINISHED;\n        emit GameFinished(gameId, address(0x0), address(0x0), \"PLAYER_QUIT_BEFORE_START\");\n        payReward(game.gameId, game.challenger, game.opponent, \"TIE_GAME_NOT_STARTED\", game.rewardAmount, game.rewardAmount);\n\n    } else if (game.status == GameStatus.STARTED) {\n\n        game.status = GameStatus.FINISHED;\n        address quitter;\n        address otherPlayer;\n\n        if (msg.sender == game.challenger) {\n            quitter = game.challenger;\n            otherPlayer = game.opponent;\n        } else {\n            quitter = game.opponent;\n            otherPlayer = game.challenger;\n        }\n\n        if (game.inTurn != quitter && block.number > game.lastMoveBlockNumber.add(INACTIVITY_TIME_GAP)) {\n            // The msg.sender is claiming that opponent's time expired\n            emit GameFinished(gameId, quitter, otherPlayer, \"TIME_EXPIRED_CLAIMED\");\n            payReward(game.gameId, quitter, address(0x0), \"OPPONENT_ABANDON\", game.rewardAmount.mul(2), 0);\n        } else {\n            // Voluntary quit\n            emit GameFinished(gameId, otherPlayer, quitter, \"PLAYER_FORFEIT\");\n            payReward(game.gameId, otherPlayer, address(0x0), \"FORFEIT_PAY\", game.rewardAmount.mul(2), 0);\n        }\n\n    }\n}\n\n    function confirmLegitWin(uint gameId, uint8[] memory board, uint8[] memory boardSeeds, string memory shipsPositions, string memory shipsPositionSeed) external canConfirm(gameId, board, boardSeeds, shipsPositions, shipsPositionSeed) {\n\n        Game storage game = games[gameId];\n\n        // Check board root hash -> if the revealed board is the same continue\n        bytes32[] memory leaves = new bytes32[](board.length);\n        for (uint i = 0; i < board.length; i++) {\n            uint256 leaf = board[i].add(boardSeeds[i]);\n            leaves[i] = keccak256(abi.encodePacked(leaf));\n        }\n\n        bool boardNotValidCheat = _isValidBoard(board, bytes(shipsPositions)); // the initial board the winner was an invalid board\n\n        Player memory winner;\n        Player memory loser;\n\n        if (msg.sender == game.challenger) {\n            winner = game.players[game.challenger];\n            loser = game.players[game.opponent];\n        } else {\n            winner = game.players[game.opponent];\n            loser = game.players[game.challenger];\n        }\n\n        bool boardMerkleRootCheat = winner.merkleRoot != computeMerkleRoot(leaves);// the winner is giving back another board, different from the original\n        bool shipPositionCheat = winner.shipsPositionsHash != keccak256(abi.encodePacked(shipsPositions, shipsPositionSeed)); // the winner is giving back another shipsposition, different from the original\n\n        if(boardNotValidCheat || boardMerkleRootCheat || shipPositionCheat){\n            string memory cond;\n            if(boardMerkleRootCheat) cond = \"OPPONENT_LIED_ON_BOARD\";\n            if(boardNotValidCheat) cond = \"OPPONENT_GAVE_NOT_VALID_BOARD\";\n            if(shipPositionCheat) cond = \"OPPONENT_LIED_ON_SHIPS\";\n            payReward(game.gameId, loser.addr, address(0x0), cond, game.rewardAmount.mul(2), 0);\n        }else{\n            payReward(game.gameId, winner.addr, address(0x0), \"LEGIT_WIN\", game.rewardAmount.mul(2),0);\n        }\n    }\n\n   function payReward(uint gameId, address receiver1, address receiver2, string memory cond, uint256 amount1, uint256 amount2) internal {\n        Game storage game = games[gameId];\n        require(address(this).balance >= (game.rewardAmount.mul(2)).sub(amount1).sub(amount2), \"Insufficient contract balance\");\n\n        game.rewardAmount = 0; // Set reward amount to zero before transferring to prevent reentrancy\n        game.status = GameStatus.PAID;\n\n        require(amount1 > 0, \"Invalid reward amount\");\n        require(amount2 >= 0, \"Invalid reward amount\");\n\n        payable(receiver1).transfer(amount1);\n        emit GamePaid(gameId, receiver1, cond, amount1);\n\n        if (receiver2 != address(0x0) && amount2 > 0) {\n            payable(receiver2).transfer(amount2);\n            emit GamePaid(gameId, receiver2, cond, amount2);\n        }\n   }\n\n    /////////////// Auxiliary functions ////////////////\n\n    //Tree is always complete (being leaves a power of 2)\n    function computeMerkleRoot(bytes32[] memory leaves) public pure returns (bytes32) {\n        sortLeaves(leaves);\n\n        uint256 levelSize = leaves.length;\n\n        while (levelSize > 1) {\n            uint256 parentLevelSize = (levelSize + 1) / 2;\n            bytes32[] memory parentLevel = new bytes32[](parentLevelSize);\n\n            for (uint256 i = 0; i < levelSize; i += 2) {\n                bytes32 left = leaves[i];\n                bytes32 right = leaves[i + 1];\n\n                if (left > right) {\n                    bytes32 temp = left;\n                    left = right;\n                    right = temp;\n                }\n\n                bytes32 node = keccak256(abi.encodePacked(left, right));\n                parentLevel[i / 2] = node;\n            }\n\n            leaves = parentLevel;\n            levelSize = parentLevelSize;\n        }\n\n        return leaves[0];\n    }\n\n    function sortLeaves(bytes32[] memory leaves) internal pure {\n        // It follows the same order of JS library (merkletreejs) -> ascendent\n        // implementing bubble-sort (it sucks but its easy to implement)\n        uint256 n = leaves.length;\n        for (uint256 i = 0; i < n - 1; i++) {\n            for (uint256 j = 0; j < n - i - 1; j++) {\n                if (leaves[j] > leaves[j + 1]) {\n                    bytes32 temp = leaves[j];\n                    leaves[j] = leaves[j + 1];\n                    leaves[j + 1] = temp;\n                }\n            }\n        }\n    }\n\n    // Check board validity\n    function _isValidBoard(uint8[] memory board, bytes memory shipsposition) internal view returns (bool) {\n        uint8[6] memory currShipsDimensions; // this is used to check that ships number/lenght is correct\n\n        // Check if the declared ships are really in the board and occupy the declared positions\n        for (uint8 i = 0; i < shipsNum; i++) {\n            bytes1 direction = shipsposition[i * 4];\n\n            if (direction == \"H\") { // It's horizontal\n                uint8 occupiedRow = uint8(shipsposition[i * 4 + 1]);\n                uint8 startingColumn = uint8(shipsposition[i * 4 + 2]);\n                uint8 shipLength = uint8(shipsposition[i * 4 + 3]);\n\n                if (startingColumn + shipLength > GRID_DIM) {\n                    return false; // Invalid ship position\n                }\n\n                for (uint8 j = startingColumn; j < startingColumn + shipLength; j++) {\n                    if (board[occupiedRow * GRID_DIM + j] != 1) {\n                        return false; // Declared ship is not in the cell\n                    }\n                }\n                currShipsDimensions[shipLength]++;\n            } else if (direction == \"V\") { // It's vertical\n                uint8 occupiedColumn = uint8(shipsposition[i * 4 + 1]);\n                uint8 startingRow = uint8(shipsposition[i * 4 + 2]);\n                uint8 shipLength = uint8(shipsposition[i * 4 + 3]);\n\n                if (startingRow + shipLength > GRID_DIM) {\n                    return false; // Invalid ship position\n                }\n\n                for (uint8 j = startingRow; j < startingRow + shipLength; j++) {\n                    if (board[occupiedColumn + j * GRID_DIM] != 1) {\n                        return false; //Declared ship is not in the cell\n                    }\n                }\n                currShipsDimensions[shipLength]++;\n            } else {\n                return false; //Invalid ship direction\n            }\n        }\n\n        // Check if the number of occupied cells = lasthits => no overlap\n        uint8 occupiedCount = 0;\n        for (uint256 i = 0; i < board.length; i++) {\n            if(board[i]==1) occupiedCount++;\n        }\n\n        if(occupiedCount != defaultHitboxes) return false;\n\n\n        // Check if all ship lengths have been accounted for\n        if (\n            currShipsDimensions[2] != shipsDimensions[2] ||\n            currShipsDimensions[3] != shipsDimensions[3] ||\n            currShipsDimensions[4] != shipsDimensions[4] ||\n            currShipsDimensions[5] != shipsDimensions[5]\n        ) {\n            return false; // Nope, punish the liar\n        }\n\n        // All conditions passed, the board is valid\n        return true;\n    }\n\n}\n",
  "sourcePath": "/home/zicco/Progetti/solidity/Battleship-SOL/frontend/frontend/battleship/src/contract/deploy/contracts/battleship.sol",
  "compiler": {
    "name": "solc",
    "version": "0.8.9+commit.e5eed63a.Emscripten.clang"
  },
  "schemaVersion": "3.4.14",
  "updatedAt": "2023-06-08T16:46:21.478Z",
  "networkType": "ethereum",
  "devdoc": {
    "kind": "dev",
    "methods": {},
    "version": 1
  },
  "userdoc": {
    "kind": "user",
    "methods": {},
    "version": 1
  }
}